:020000040800F2
:100000005807002089010008A70F0008B50E000856
:10001000A50F00088F020008BD11000800000000B5
:100020000000000000000000000000008510000833
:100030009102000800000000A90F000889100008C4
:10004000A3010008A3010008A3010008A301000800
:10005000A3010008A3010008A3010008A3010008F0
:10006000A3010008A3010008A3010008A3010008E0
:10007000A3010008A3010008A3010008A3010008D0
:10008000A3010008A3010008A3010008A3010008C0
:10009000A3010008A3010008A3010008A3010008B0
:1000A000A3010008A3010008A3010008A3010008A0
:1000B000A3010008A301000800000000A30100083C
:1000C000A30100080000000000000000A3010008D8
:1000D00000000000A3010008A301000800000000C8
:1000E000A3010008A3010008A301000800F002F822
:1000F00000F03AF80AA090E8000C82448344AAF188
:100100000107DA4501D100F02FF8AFF2090EBAE885
:100110000F0013F0010F18BFFB1A43F0010318473B
:1001200094140000B4140000103A24BF78C878C1B9
:10013000FAD8520724BF30C830C144BF04680C60ED
:10014000704700000023002400250026103A28BF35
:1001500078C1FBD8520728BF30C148BF0B60704739
:100160001FB51FBD10B510BD00F058F81146FFF7C0
:10017000F7FF01F081F800F076F803B4FFF7F2FF23
:1001800003BC00F07DF8000009488047094800479B
:10019000FEE7FEE7FEE7FEE7FEE7FEE7FEE7FEE737
:1001A000FEE7FEE704480549054A064B7047000094
:1001B00003110008ED000008580100205807002036
:1001C00058030020580300204FF0000200B51346EA
:1001D00094469646203922BFA0E80C50A0E80C5067
:1001E000B1F12001BFF4F7AF090728BFA0E80C5018
:1001F00048BF0CC05DF804EB890028BF40F8042B11
:1002000008BF704748BF20F8022B11F0804F18BF7D
:1002100000F8012B7047704770477047754600F033
:100220002BF8AE4605006946534620F00700854688
:1002300018B020B5FFF7B6FFBDE820404FF000062C
:100240004FF000074FF000084FF0000B21F00701BE
:10025000AC46ACE8C009ACE8C009ACE8C009ACE801
:10026000C0098D46704710B50446AFF300802046A4
:10027000BDE81040FFF781BF00487047F80000203C
:1002800001491820ABBEFEE7260002007047FEE7DA
:10029000704700002DE9F84FDFF89C91002409F128
:1002A000040A0AF1040B23460F270BF1040EBBE0EE
:1002B0000125A5402A40AA4276D1DFF880C14E68C8
:1002C000A6EB0C0866452BD00DDC032E34D005DCE4
:1002D00036B3012E19D0022E2FD11BE0112E16D0CD
:1002E000122E2AD119E0B8F5881F19D006DCB8F50E
:1002F000803F15D0B8F5801F1FD111E0B8F5001F61
:100300000ED0B8F5041F18D10AE0CB6815E0CB6811
:100310001B1D12E0CB6808330FE0CB680C330CE0F8
:100320008B682BB1012B4FF0080303D0456104E02B
:10033000042302E0056100E00023FF2A01D80646FD
:1003400001E000F104064FEA840501D9A5F120057A
:10035000D6F8008007FA05FC28EA0C0803FA05F530
:1003600048EA0508C6F800804D68ED005BD5344DBD
:10037000AE6946F00106AE61AD6924F0030605F0F2
:10038000010500952F4D06EB050CDCF80850A6077B
:10039000360F07FA06F825EA0805DFF8AC80404575
:1003A00003D14FF0000810E03DE0DFF8A0804045A9
:1003B00002D14FF0010808E0DFF89480404502D1F7
:1003C0004FF0020801E04FF0030808FA06F848EA87
:1003D0000508CCF808804D68D9F80060ED034D465B
:1003E00001D5164300E096432E604D68DAF80060B0
:1003F000AD03554601D5164300E096432E604D6887
:10040000DBF80060ED025D4601D5164300E096433F
:100410002E604D68DEF80060AD02754601D51643CA
:1004200000E096432E60641C0A6832FA04F57FF4FB
:100430003FAFBDE8F88F000000040140000011103C
:10044000001002400000014000080140000C014083
:10045000001001400AB1016170470904FBE7000088
:100460000148806870470000080000200248816849
:10047000027811448160704708000020074810B5D9
:10048000016841F010010160032000F067F80F20BF
:1004900000F006F800F024F8002010BD0020024013
:1004A00070B50D4D04464FF47A712878B1FBF0F029
:1004B0000A490968B1FBF0F000F061FC48B9102C62
:1004C00007D200222146501E00F028F800206C6060
:1004D00070BD012070BD0000080000201400002045
:1004E0000C4808B5816941F001018161816901F021
:1004F00001010091C16941F08051C161C06900F002
:10050000805000900448416821F0E06141F00071A2
:10051000416008BD0010024000000140F0B40E4BE5
:100520001B680C46C3F30223C3F10705042D00D951
:100530000425191D072901D2002300E0DB1E012636
:1005400006FA05F1491E214099409E40761E16404C
:100550003143F0BC00F033BE0CED00E0064900F082
:10056000070208684FF6FF03184040EA0220034ADA
:1005700010430860704700000CED00E00000FA0531
:100580002DE9F0470F46050061D0434E306800F07A
:100590000700B84209D2306820F0070038433060C5
:1005A000306800F00700B84251D128683B4C810701
:1005B00012D5400703D5606840F4E0606060287899
:1005C000000703D5606840F4605060606068A96807
:1005D00020F0F000084360602878C00728D06868E1
:1005E000012810D02168022810D0890700292EDAAE
:1005F000616821F0030101436160FFF731FF80462C
:1006000041F288390DE021688903EFE78901EDE7C0
:10061000FFF726FFA0EB0801494502D90320BDE8FA
:10062000F0876068696800F00C00B0EB810FEFD1D3
:10063000306800F00700B8420BD9306820F007009E
:1006400038433060306800F00700B84201D0012024
:10065000E5E72878400705D56068E96820F4E060A0
:10066000084360602878000706D56068296920F48F
:10067000605040EAC100606000F038F86168084AE4
:10068000C1F30311515CC840064908600648006880
:10069000FFF706FF0020C2E70020024000100240E2
:1006A0009A150008140000200C0000200448054999
:1006B00000684968044AC1F30221515CC840704790
:1006C0001400002000100240AA1500080448054943
:1006D00000684968044AC1F3C221515CC8407047B0
:1006E0001400002000100240AA15000812A185B0D5
:1006F0000FC98DE80F0014A0144A006804905168D7
:10070000134801F00C03042B10D0082B0ED1C1F3B9
:100710008343C9031DF803000AD5516804AAC1F335
:100720004041515C0A4A5043B0FBF1F005B07047BC
:1007300008494843FAE700000203040506070809D0
:100740000A0B0C0D0E0F10100102000000100240E9
:1007500000127A0000093D002DE9F84F040070D026
:100760002078C04DC00749D06868C0F381000128D7
:1007700007D06868C0F38100022809D16868C00307
:1007800006D52868800339D560680028E7D035E0B1
:100790006068B0F5803F0BD010B1B0F5A02F11D03C
:1007A000286820F480302860286820F4802002E047
:1007B000286840F480302860606890B1FFF750FEF0
:1007C00006460AE0286840F480202860F0E700BF71
:1007D000FFF746FE801B642873D828688003F7D58E
:1007E0000CE0FFF73DFE064605E000BFFFF738FED0
:1007F000801B6428F0D828688003F7D420789A4EAC
:1008000080074FF001094FF0000839D5686810F0F3
:100810000C0F07D06868C0F38100022809D168680E
:10082000C00306D42868800714D52069012808D1A0
:1008300010E02069B0B1C6F80090FFF711FE07463E
:1008400005E00AE1FFF70CFEC01B0228C4D82868A7
:100850008007F7D52868616920F0F80040EAC100F8
:1008600028600DE0C6F80080FFF7FAFD074604E0B7
:10087000FFF7F6FDC01B022823D828688007F7D4AD
:10088000207800072CD57948A169D9B1C0F800902B
:10089000FFF7E6FD074604E0FFF7E2FDC01B022874
:1008A0000FD8686A8007F7D571484FF4FA5100688D
:1008B000B0FBF1F0009000BF0098411E0091FAD209
:1008C0000EE080E0C0F80080FFF7CAFD074604E0B4
:1008D000FFF7C6FDC01B022875D8686A8007F7D4E9
:1008E0002078400760D5E8690027C00008D4E8698F
:1008F00040F08050E861E869012700F080500090E6
:100900005C480168C90513D40168834641F48071CD
:100910000160FFF7A5FD824606E000BFFFF7A0FDDE
:10092000A0EB0A0064284ED8DBF80000C005F5D51E
:10093000E06801280AD008B1052813D0286A20F001
:1009400001002862286A20F0040002E0286A40F0D2
:1009500001002862E06841F2883B98B1FFF780FD12
:1009600082460BE0286A40F004002862EEE700BFF0
:10097000FFF776FDA0EB0A0159455AD8286A80078F
:10098000F6D50CE0FFF76CFD824605E0FFF768FD49
:10099000A0EB0A0159454CD8286A8007F6D41FB14C
:1009A000E86920F08050E861E06988B36968C1F3C4
:1009B0008101022944D00228C6F8608004D0FFF7E4
:1009C0004FFD044638E034E0FFF74AFD074604E0F7
:1009D000FFF746FDC01B02282BD828688001F7D4FA
:1009E000206AB0F5803F05D16868A16820F4003026
:1009F00008436860D4E908010843696821F4741168
:100A000008436860C6F86090FFF72AFD044606E0D8
:100A100025E000BFFFF724FD001B022809D8286845
:100A20008001F7D51BE000BFFFF71AFD001B02286D
:100A300002D90320BDE8F88F28688001F4D40EE0C5
:100A40000128F7D06868226A00F48031914204D10D
:100A5000616A00F47010884201D00120EAE70020AA
:100A6000E8E70000001002400000424280044242D9
:100A7000140000200070004070B5040009D0606AC6
:100A8000002540B125616561A56294F8510040B12F
:100A90000CE0012070BD6068B0F5827FF4D0E561A4
:100AA000F2E784F85050204600F040F8022084F825
:100AB00051002068016821F040010160A08821896F
:100AC00000F4827001F404410843A18901F400613B
:100AD0000843217C01F002010843217D01F001015E
:100AE0000843218B01F400710843217F01F0380194
:100AF000084394F8201001F080010843218D01F48F
:100B00000051084321680860A069042101EA1040EF
:100B1000216848602068C16921F40061C161656590
:100B2000012084F85100002070BD000030B585B070
:100B300000240094019402940394006814498842AC
:100B400023D11448816941F480518161816901F4A4
:100B500080510491816941F00401816180690E4DE9
:100B600000F004000490A0200090022001900320D7
:100B7000039069462846FFF78DFB4020CDE900042D
:100B8000694628460294FFF785FB05B030BD00009A
:100B90000030014000100240000801402DE9F84FEC
:100BA000044690F8500000270A9E1D4692468B4648
:100BB0004FF0010901280ED0012084F85000FFF702
:100BC0004FFC804694F85100616801280CD0B1F5C3
:100BD000827F07D102E00220BDE8F88FA16809B941
:100BE000042801D00227C2E0BBF1000F27D0BAF1E0
:100BF000000F24D01DB394F85100042802D0052022
:100C000084F8510000206065C4F838A0E587A58706
:100C1000C4F830B0E586A586206460642068016869
:100C2000490603D4016841F040010160E068B0F575
:100C3000006F606805D0E8B3012D46D07FE0012742
:100C400095E008B1012D39D1206B21680088C8607A
:100C5000206B801C2063E08E401EE0862EE0206822
:100C6000816889070FD5E18E69B1B9F1010F0AD109
:100C7000216B0988C160206B801C2063E08E401EC0
:100C8000E0864FF0000920688168C9070CD0E18F29
:100C900051B1C068A16B0880A06B801CA063E08F7D
:100CA000401EE0874FF00109FFF7DAFBA0EB0800D8
:100CB000B04200E009E001D3701C50D1E08E002862
:100CC000CDD1E08F0028CAD13FE0206B21680078A9
:100CD0000873206B401C2063E08E401EE0862EE0EF
:100CE0002068816889070FD5E18E69B1B9F1010FDC
:100CF0000AD1216B09780173206B401C2063E08EC0
:100D0000401EE0864FF0000920688168C9070CD0BA
:100D1000E18F51B1C068A16B0870A06B401CA0634B
:100D2000E08F401EE0874FF00109FFF799FBA0EB31
:100D30000800B04202D3701C01D010E07EB1E08EFA
:100D40000028CDD1E08F0028CAD142463146204646
:100D500000F02BF928B101272020606507E0032768
:100D600005E0A06818B92068C1688068009001207B
:100D700084F85100002084F8500038462CE710B564
:100D8000401EB0F1807F01D3012010BD4FF0E02460
:100D900060610F21601700F012FA0020A0610720A7
:100DA0002061002010BD70B5040004D094F83D000F
:100DB000002510B106E0012070BD84F83C502046AB
:100DC00000F022F8242084F83D002068C16821F456
:100DD0000051C160204600F095F92068016921F4B6
:100DE000904101612068416921F02A014161206838
:100DF000C16841F40051C1602564202084F83D00A1
:100E000084F83E00002070BD70B586B000240094C8
:100E1000019402940394234E036823490220032281
:100E2000224DB34219D18B6943F480438B618B69A6
:100E300003F4804304938B6943F004038B61896955
:100E4000039201F0040104910102CDE9001069460A
:100E50002846FFF71FFA28151BE0154EB3421FD195
:100E6000CB6943F40033CB61CB6903F400330493C3
:100E70008B6943F004038B618969039201F00401DB
:100E800004910421CDE9001069462846FFF702FAD3
:100E90000820CDE90004694628460294FFF7FAF9D4
:100EA00006B070BD0038014000100240000801404B
:100EB00000440040FEE700002DE9F04186B0002428
:100EC00020480094019402940394816941F0100138
:100ED0008161816901F010010491816941F0200173
:100EE0008161816901F020010491816941F004016F
:100EF00081618069144F00F004004FF400550490A4
:100F0000002229463846FFF7A5FADFF84080002284
:100F100010214046FFF79EFA009502260125039610
:100F2000CDE9015469463846FFF7B4F91020CDE900
:100F30000005CDE9024669464046FFF7ABF906B029
:100F4000BDE8F0810010024000100140000801409F
:100F5000124810B5104901604FF4827141600021C0
:100F60004FF40062C0E902120122C0E904125202E9
:100F700082611822C0E90721416281620A21C162AF
:100F8000FFF77AFD08B172B6FEE70122BDE8104016
:100F900010210348FFF75EBA00300140180000201E
:100FA00000080140FEE7FEE7704738B50B460092A7
:100FB00004460022802100F009F8002804D0606D6A
:100FC00040F020006065032038BD00002DE9F843A3
:100FD0001E46914688460446089DFFF741FA401B8D
:100FE000351AFFF73DFA074625480068C0F3CB30B5
:100FF000684338E0701C37D0FFF732FAC01BA842B4
:1010000003D215B1009860B32CE02068416821F04C
:10101000E00141606068B0F5827F0BD1A068B0F557
:10102000004F02D0B0F5806F04D12068016821F034
:1010300040010160A06AB0F5005F09D12068016835
:1010400021F4005101602068016841F40051016001
:10105000012084F85100002084F850000320BDE8EE
:10106000F8830025401E00902068816838EA01005E
:1010700004D000214945BDD10020F0E70121F9E766
:10108000140000207047000010B500F0A9F800F02F
:1010900067FA03490860BDE81040FFF7E7B90000B0
:1010A0000400002030B58FB028216846FFF78CF887
:1010B00014210AA8FFF788F801210804CDE90010DF
:1010C0000024029402250491CDE907504FF4E0106A
:1010D00009906846FFF740FB08B172B6FEE70F20A3
:1010E000CDE90A054FF48060CDE90C4002210AA841
:1010F0000E94FFF745FA002801D072B6FEE70FB054
:1011000030BD704770B5044600680169E26821F49B
:101110004051114301612169A06808436169084396
:101120002168CA6841F20C639A430243CA6020688E
:101130004169A26921F44071114341611E4920684F
:10114000884202D1FFF7C2FA01E0FFF7AFFA00EBE5
:10115000C00101EB0012606864218000B2FBF0F373
:10116000B3FBF1F36FF018067343B2FBF0F5B2FB7B
:10117000F0F605EB8305322303EB0515B5FBF1F51E
:10118000B6FBF1F605F0F00505EB0615B2FBF0F63F
:10119000B2FBF0F0B0FBF1F06FF01802504306EB39
:1011A000800003EB0010B0FBF1F0216800F00F00AD
:1011B0002844886070BD000000380140FEE7090740
:1011C000090E002804DB00F1E02080F800147047CD
:1011D00000F00F0000F1E02080F8141D70470000BF
:1011E000FEB5002002900190FF208DF804001D4DF7
:1011F0003F208DF805001C4C2878A61490B90022D9
:1012000010212046FFF726F9032302AA01A9174857
:101210000096FFF7C3FC012210212046FFF71AF9C0
:1012200001202870002210212046FFF713F9012326
:1012300002AA01A90D480096FFF7B0FC0122102177
:101240002046FFF707F9BDF80800C0F30D0000F0D5
:1012500076F8074A074B00F085F803B0BDE8F04088
:1012600000F03CB8000000200008014018000020F9
:1012700019DCE8F95980963FFFF700F9FFF712FFF4
:10128000FFF71AFEFFF764FE124811494FF4E135EB
:1012900000240160C0E901540C26C460C0E9044682
:1012A0008461C461FFF77FFD08B172B6FEE70948AB
:1012B000094944300160C0E90154C460C0E90446F2
:1012C0008461C461FFF76FFD08B172B6FEE7FEE707
:1012D00000380140700000200044004021F000422E
:1012E000A2F16052B2F5801F01F0004328BFD2F195
:1012F0007F6C0BD95FEA001C43EAC20242EB5070DC
:1013000018BF704728BF20F001007047B2F5801F5A
:10131000BCBF184670474FEA410C1CF5001F02D2B3
:10132000084600F035B970B500F0C6F80000008935
:10133000FFF7F6BF4FF00040A0F580007047B0FA0D
:1013400080F310FA03F10AD0C3F11D0303F58063A3
:101350004FEA41504FEA035202EBD12170474FF060
:1013600000007047DFF848C170B51CEA111E1EBFAF
:101370001CEA13159EEA0C0F95EA0C0F00F06F8023
:1013800081EA030423EA4C134EEAD47E21EA4C118D
:1013900041F4801143F48013AE44A1FB024CA0FB46
:1013A0000365AEF17F7E361955EB0C05A1FB034CAE
:1013B0004CF10003A0FB021C16EB0C06654153F137
:1013C0000003094218BF46F0010613F4007F0BD159
:1013D0004FEA03314FEA0530340341EA155140EA40
:1013E00016506FF003020AE04FEAC3214FEAC5200E
:1013F000F40241EA555140EA56506FF0020202EB06
:101400002E4201EB025585EACE710AD05FEA440C08
:1014100018BF24F0004450F1000041F1000120EA1F
:10142000D47040F2FE7C624500D270BDA84214BF69
:101430004FF080444FF04044002E08BF0024BEF11E
:10144000806FA8BFA1F1C041BDE8704080F28280EA
:101450004FF0000001F1C04101F0004170479EEAE9
:101460000C0F0CEA131518BF95EA0C0F06D04FF0BD
:10147000000081EA030E0EF0004170BD00F01CF880
:101480008900013E00F007B800F009B84FEA430CAC
:101490005FEA5C5C08D081EA030100F05BB84FEAC8
:1014A000410C5FEA5C5CF6D14FF0000001497047E7
:1014B0000000FF070000F87F0EF1020E2EF0030E71
:1014C0005EF8046B364205D4012A43EB030515F59B
:1014D000001F12D8012841EB010C1CF5001F0CD88D
:1014E0000ED14FEAD17C15F5001F0CEB4C0C0CF122
:1014F000020C08BF4CEBD37C04E04FF0080C01E079
:101500004FEAD37C0CEB4C0526FA05F606F00706ED
:10151000B6F1040C06D20EEB860CBDE870404CF020
:10152000010C6047DFE80CF0090B02024FF00041AC
:101530004FF00000A1F5002170BD194610460128AA
:1015400051EB010418BFD4F5001484BF002001F052
:10155000004170BD0808A0F500114FEA3101704745
:1015600010F0004148BF4042B0FA80F310FA03F295
:10157000C3F19D030BD051EAC35101EB1220530676
:1015800038BF704700F1010008BF20F0010070472C
:10159000FF2141EAD050C005704700000000000064
:1015A0000000010203040607080900000000010210
:1015B00003040000D41500080000002018000000FB
:1015C00028010008EC150008180000204007000062
:1015D00044010008000000000000000001000000BD
:0C15E00010000000000000000024F400D7
:04000005080000ED02
:00000001FF
